:100000000C942D050C9474050C9474050C94652EB9
:100010000C9474050C9474050C9474050C9474057C
:100020000C9474050C9474050C9464210C941920A0
:100030000C9426230C9474050C9474050C9474058C
:100040000C9474050C9474050C9474050C9474054C
:100050000C9474050C94BD220C9474050C947405D6
:100060000C9474050C9474050C9474050C9474052C
:100070000C9474050C9474050C9474050C9474051C
:100080000C9474050C9474050C9474050C9474050C
:100090000C9474050C9474050C9474050C947405FC
:1000A0000C9474050C9474050C947405F90AFC0AFC
:1000B0001D0B2D0B340B540B570B890BAB0B480C42
:1000C000480CB60BB80BBC0BE00B010C040C070C76
:1000D000290CBB11BB11EE11EE116F12A913A9135C
:1000E000A9138D12011312131213E716E716FA164D
:1000F000FA16F016FA16FA16FA16E716E716F516B5
:10010000FA16FA16F51632295929022B5929022B0B
:10011000A529C829022BBD2ACD2A00DA028150D98F
:10012000F1DB20A4A62EAF00A0C000A1C800AED570
:1001300080A81FD300408D1420001E140A05000063
:1001400000000000000000000000000000000000AF
:10015000000000000000000000000000000000009F
:1001600000007E0F00D4FFFFFFC7000000780000F2
:100170000000000000002A2B280000000000000002
:1001800000000000000000000029000000002C1EFC
:100190003420212224342627252E362D3738271EB9
:1001A0001F202122232425263333362E37381F04DF
:1001B00005060708090A0B0C0D0E0F101112131477
:1001C00015161718191A1B1C1D2F3130232D350435
:1001D00005060708090A0B0C0D0E0F101112131457
:1001E00015161718191A1B1C1D2F3130354C00AF6E
:1001F00000AE2223252628292A2C2D2F30323335F4
:1002000036383A3B3D3E4042434547494A4C4E50C2
:1002100051535557595A5C5E6062646668696B6DEC
:100220006F71737577797B7D7F81838587898A8CF0
:100230008E90929496989A9C9E9FA1A3A5A7A8AAF7
:10024000ACAEAFB1B3B4B6B8B9BBBCBEBFC1C2C32C
:10025000C5C6C7C9CACBCCCDCED0D1D2D2D3D4D5C6
:10026000D6D7D7D8D9D9DADADBDBDBDCDCDCDCDCEF
:10027000DDDDDDDDDCDCDCDCDCDBDBDBDADAD9D9C7
:10028000D8D7D7D6D5D4D3D2D2D1D0CECDCCCBCA55
:10029000C9C7C6C5C3C2C1BFBEBCBBB9B8B6B4B37B
:1002A000B1AFAEACAAA8A7A5A3A19F9E9C9A989611
:1002B0009492908E8C8A89878583817F7D7B7977E4
:1002C0007573716F6D6B6968666462605E5C5A59C4
:1002D00057555351504E4C4A4947454342403E3D85
:1002E0003B3A3836353332302F2D2C2A2928262513
:1002F000232207087F0807003E5B4F5B3E003E6BF2
:100300004F6B3E001C3E7C3E1C00183C7E3C18009F
:100310001C577D571C001C5E7F5E1C0000183C189B
:100320000000FFE7C3E7FF00001824180000FFE704
:10033000DBE7FF0030483A060E002629792926001F
:10034000407F05050700407F05253F005A3CE73CFC
:100350005A007F3E1C1C0800081C1C3E7F00142213
:100360007F2214005F5F005F5F0006097F017F004E
:10037000006689956A0060606060600094A2FFA2D8
:10038000940008047E04080010207E201000080855
:100390002A1C0800081C2A0808001E101010100053
:1003A0000C1E0C1E0C0030383E383000060E3E0E7F
:1003B000060000000000000000005F0000000007D1
:1003C00000070000147F147F1400242A7F2A1200E3
:1003D00023130864620036495620500000080703C2
:1003E0000000001C224100000041221C00002A1CC9
:1003F0007F1C2A0008083E080800008070300000BA
:1004000008080808080000006060000020100804C8
:1004100002003E5149453E0000427F4000007249C3
:10042000494946002141494D33001814127F1000FC
:100430002745454539003C4A4949310041211109C8
:100440000700364949493600464949291E0000003F
:100450001400000000403400000000081422410095
:100460001414141414000041221408000201590944
:1004700006003E415D594E007C1211127C007F49FE
:10048000494936003E41414122007F4141413E0001
:100490007F49494941007F09090901003E41415115
:1004A00073007F0808087F0000417F410000204062
:1004B000413F01007F08142241007F40404040003E
:1004C0007F021C027F007F0408107F003E414141F3
:1004D0003E007F09090906003E4151215E007F0967
:1004E0001929460026494949320003017F010300CA
:1004F0003F4040403F001F2040201F003F40384009
:100500003F00631408146300030478040300615976
:10051000494D4300007F4141410002040810200082
:10052000004141417F00040201020400404040407C
:1005300040000003070800002054547840007F2842
:1005400044443800384444442800384444287F0058
:1005500038545454180000087E09020018A4A49CC2
:1005600078007F080404780000447D4000002040AB
:10057000403D00007F102844000000417F40000003
:100580007C04780478007C080404780038444444EF
:100590003800FC182424180018242418FC007C08B7
:1005A0000404080048545454240004043F44240024
:1005B0003C4040207C001C2040201C003C4030403F
:1005C0003C004428102844004C9090907C004464E7
:1005D000544C440000083641000000007700000041
:1005E0000041360800000201020402003C262326D6
:1005F0003C00000000000000404040F0F8F8FF38E8
:10060000FFF8F83FF8F8FF38FFF8F8F040404000F6
:10061000000000000080C0C0C0800000C0C080009A
:10062000000080C0C000C0C0000080C0C00000004A
:100630000000C0C0C0C0C000C0C00000000000007A
:1006400000000000000000000000000000000000AA
:10065000000000000000000000000000000000009A
:10066000000000000000000000000000000000008A
:1006700000C0F0F8FC3E1E06010000007F41414131
:100680007F007F4141417F000080C0E07E5B4F5B87
:10069000FEC00000C000DCD7DEDEDED7DC00C0001C
:1006A000000000000000000000000000000000004A
:1006B0000000000000000000494949FFFFFFFFE083
:1006C000DFBFBF00BFBFDFE0FFFFFFFF49494900B9
:1006D000000000001F3F6060E0BF1F007F7F071E1B
:1006E000381E077F7F007F7F0E1F3B716000000078
:1006F00000007F7F0C0C0C007E7E007F7E030300D9
:100700007F7E03037E7E03037F7E000F3E703C06E8
:100710003C703E0F00327B49493F7E007F7E0303E1
:10072000001E3F69696F2600000000000000000005
:1007300000030F1F3F3C7870600000007F41414183
:100740007F007F4141417F00307B7F783020203027
:10075000787F3B0003000F7F0F0F0F7F0F00030018
:100760000000000000000000000000000000000089
:100770000000000000000000010101070F0F7F0FC3
:100780007F0F0F7E0F0F7F0F7F0F0F0701010100FB
:100790000000000000000000000101000000000057
:1007A0000000000000000000000000000000000049
:1007B0000000000000000000000000000000000039
:1007C0000000000000000000000000000000000029
:1007D0000000000000000000000000000000000019
:1007E0000000000000000000000000000000000009
:1007F00000000000000000000000000000000000F9
:1008000000000000000000000000000000000000E8
:1008100000000000000000000000000000000000D8
:1008200000000000000000000000000000000000C8
:10083000000005010980A101850319012AB70015EF
:100840000126B700950175108100C0050C0901A1B2
:1008500001850419012AA002150126A0029501753F
:10086000108100C00660FF0961A101096215002620
:10087000FF009520750881020963150026FF009589
:100880002075089102C005010906A101050719E0BC
:1008900029E7150025019508750181029501750864
:1008A00081010507190029FF150026FF009506752F
:1008B0000881000508190129059505750191029522
:1008C0000175039101C009025B00030100A0FA0950
:1008D000040000010301010009211101000122406F
:1008E000000705810308000A090401000203000053
:1008F00000092111010001222200070582032000C6
:1009000001070503032000010904020001030000A0
:100910000009211101000122320007058403200093
:100920000A120100020000000832FC8712020001D6
:1009300002000114034B00690045004D005F004BAD
:100940000052004200440000000A034B00690045C9
:10095000004D000000040309040001010101010130
:100960000101010202020202020202020303030366
:100970000303030304040404040404050505050536
:1009800006060606060707070707080808080909F4
:1009900009090A0A0A0B0B0B0C0C0C0D0D0D0E0E9F
:1009A0000E0F0F0F10101111111212131314141532
:1009B0001516161717181819191A1A1B1B1C1D1DA6
:1009C0001E1E1F20202122222324242526262728FC
:1009D00029292A2B2C2D2D2E2F303132323334352C
:1009E000363738393A3B3C3D3E3F4041424344452F
:1009F000464748494A4C4D4E4F505153545556580E
:100A0000595A5B5D5E5F616264656668696B6C6DB7
:100A10006F7072737577787A7B7D7E80828385872D
:100A2000888A8C8E8F91939596989A9C9EA0A2A36B
:100A3000A5A7A9ABADAFB1B3B5B7BABCBEC0C2C470
:100A4000C6C9CBCDCFD1D4D6D8DBDDDFE2E4E7E930
:100A5000EBEEF0F3F5F8FAFDFF0011241FBECFEF27
:100A6000DAE0DEBFCDBF04B603FE27C080917E066C
:100A700090917F06A0918006B09181068730904BBF
:100A8000A740B04BD1F410927E0610927F061092D0
:100A900080061092810614BE84B7877F84BF0FB68C
:100AA000F894A8958091600088618093600010920E
:100AB00060000FBEE0E0F8E3099512E0A0E0B1E0CD
:100AC000E6E3F1E602C005900D92A634B107D9F72E
:100AD00026E0A6E4B2E001C01D92AE37B207E1F70E
:100AE0000E9476050C9499300C940000CF93DF930C
:100AF000CDB7DEB7E4970FB6F894DEBF0FBECDBF1B
:100B000084B7877F84BF0FB6F894A8958091600062
:100B1000886180936000109260000FBE90E080E8D2
:100B20000FB6F89480936100909361000FBE85B773
:100B3000806885BF85B7806885BF83ED99E1909314
:100B40004702809346020E945D200E94032180910B
:100B5000E20084608093E200789480916E0688239E
:100B6000A1F01091E9001F709091EC00892F817025
:100B700090FD80E8182B1092E9008091E80083FD39
:100B80000E9448281F701093E90082E084BD93E022
:100B900095BD9AEF97BD80936E0010924802109217
:100BA000490210924A0210924B020E94A125811123
:100BB00002C00E9492250E94A31C80931101809183
:100BC0001101882321F01092950185E203C085E28E
:100BD00080939501809396010E94A31C81110E942D
:100BE0001F2E8091110181112EC0FE0131968AE0E5
:100BF000DF011D928A95E9F786E6898387E98A8372
:100C000086EC8B8384E38C8385E38D83A7E0B1E05E
:100C1000CE010B9621912D93E817F907D9F787E0BC
:100C2000ECE9F1E0DE01919601900D928A95E1F7F1
:100C3000FE01B196A0E0B1E0CE01889621912D93FE
:100C4000E817F907D9F780911101882311F090E096
:100C500001C095E09093590285E0891B809358026A
:100C600007E011E0BCE0EB2EB1E0FB2EF801819132
:100C70008F018F3F11F00E94281DE016F106B1F799
:100C800000E011E0D8018D918D018F3F11F00E949D
:100C9000281DB1E007301B07A9F78AE0E5E9F2E07B
:100CA000DF01282F1D922A95E9F7EEE4F2E0DF013B
:100CB0001D928A95E9F70E948915811102C00E9450
:100CC000941582E090E00E94013080938A0284E0D3
:100CD00090E00E940130182F82E290E00E940130E3
:100CE000212F30E0382B30934D0220934C020E948C
:100CF0008B1DEFE7FBEB3197F1F700C000000E947E
:100D00008B1D8091950280FF08C06FEF7FEF80E020
:100D100090E00E9433300E94992283E090E00E948C
:100D200001300E94B019809178060E94B60C0E9492
:100D3000A31C811102C00E94222E83E080938502B1
:100D400080E2809356040E94B32C6DE070E08DE247
:100D500091E00E94F327892B09F043C0809185021E
:100D600063E070E081FD3AC08AE291E00E94F327DF
:100D7000892BB9F56DE070E08AE191E00E94F327DC
:100D8000892B79F50E940E23DC01CB01805D9A4806
:100D9000AF4FBF4F8093590390935A03A0935B03C7
:100DA000B0935C03E9E5F4E080E092E0DF019C01B0
:100DB0001D9221503040E1F7F0936006E0935F060A
:100DC0008FEF9FEF909358048093570481E08093B6
:100DD0005E0380935D031092860203C087E291E078
:100DE000C5CF80915A02811137C00E9489158111A7
:100DF00004C00E9494150E94A22788E090E00E94FF
:100E000009306093790670937A0680937B069093FD
:100E10007C06809155048360809355046E7F71F445
:100E20000E94A22788E090E00E9409306093790632
:100E300070937A0680937B0690937C060E94F12B38
:100E40000E94C0258091790680FF03C086950E948C
:100E5000712781E080935A0280911101811106C0AF
:100E600084EF80931F0185EF80931E0120911F0165
:100E7000E22FE295EF70F0E031A12F7081E090E079
:100E8000AC01022E01C0440F0A94EAF7542F50958A
:100E9000352331A332A1432B42A340911E01A42F3D
:100EA000A295AF70B0E091963C9191974F70042E4F
:100EB00001C0880F0A94EAF7982F90959323919692
:100EC0009C93919792969C919297892B92968C9352
:100ED000929780A190E002C0959587952A95E2F7B8
:100EE000817090962C9130E002C0359527954A95F7
:100EF000E2F720FF02C092E001C090E0892B8093CE
:100F000063029091110181E0982790936202891BFE
:100F100080935B0282E191E090936303809362038C
:100F2000F0E46F2E44244394512CBE016F5F7F4F39
:100F30007B01CE010D969EA78DA780916E06853010
:100F400009F047C000E112E180916E06853009F09A
:100F50003AC080916E06843029F10E9405241092D7
:100F60006603A8E1B0E00FB6F894A895A0936000DE
:100F70000FBE6092600083B7817F846083BF83B7B8
:100F8000816083BF7894889583B78E7F83BF0FB6C7
:100F9000F894A89580916000886180936000109219
:100FA00060000FBE80916D06882309F4CDCF0E94AA
:100FB0008B1DE5E9F2E08191811192C4B2E0EF3935
:100FC000FB07C9F7C1CF109261060E94B4190E94B5
:100FD0007B230E948B1DA82E81110E940E23E5E920
:100FE000F2E0F8ABEFA7EBE8F2E0A5E9B2E000E051
:100FF00010E0902EBD9081918B2549F1C12CDD240C
:10100000D394982F9D21F1F00E94A31C882399F07E
:10101000C9A29AA2BD2081E009F480E08BA30E94BE
:101020001A238160782F9DA38CA349A15AA16BA19B
:101030008DA10E94EC0CF801E557FD4F8081D82668
:10104000D0821AC0C394DD0C27E0C212DACF0F5F42
:101050001F4F0A30110569F68FEF88A789A71AA6D6
:101060000E941A238160782F9CA78BA748A559A5B9
:101070006AA58CA50E94EC0C80915404882309F485
:101080006AC080915304E0917906E695E81BE093ED
:101090004F04823059F4F0E0E65CFE4FE4910E2FED
:1010A00010E0E9E4CE2EE6E2DE2E06C000ED17E009
:1010B00071E6C72E74E2D72E80915004882361F028
:1010C000109250040E94821D90934E0480934D0410
:1010D00010925204109251040E94821DE0914D041E
:1010E000F0914E049C012E1B3F0B2F3F3F4798F57C
:1010F00020915E022223B1F010925E0220915C02E8
:1011000030915D02821B930B8F3F9F4758F4205D07
:101110003A4830935D0220935C02809155048860C8
:101120008093550480905104909052040E0F1F1F1D
:1011300010934E0400934D048DE494E0F60109955C
:101140008091510490915204892B29F4892819F037
:1011500081E080935E02E09163025E2F550F550F90
:1011600020911F01E22FE295EF70F0E080A190E066
:101170002F7002C0959587952A95E2F7817099277F
:1011800040911E01E42FE295EF70F0E020A130E0E5
:101190004F7002C0359527954A95E2F7F901E17045
:1011A000FF2720FF02C0E2E0F0E0E82BF92BE52B5F
:1011B000E093630210916202EF70F0E0EB51FE4F9A
:1011C000908180916102890F80936102823074F076
:1011D000E12FF0E0E15AFD4F80818F5F808360E076
:1011E000812F0E94C80DBB24B39401C0B12C809103
:1011F00061028F3F6CF4E12FF0E0E15AFD4F8081F6
:101200008150808361E0812F0E94C80DBB24B3947C
:1012100080916102082E000C990B62E070E00E9440
:10122000553080936102B1100E94871580915E0352
:10123000882309F486C180918702909188020E94D8
:10124000FF22C29708F47DC00E941A23909388025F
:101250008093870260E080E00E9446250E947B2305
:10126000809364020E94A31C61E0882359F180E00E
:101270000E94462560E083EA91E00E94452462E0F6
:1012800080E00E94462560E088EA91E00E944524C3
:1012900063E080E00E94462560E08CEA91E00E94D5
:1012A00045246AE080E00E94462560E082EB91E000
:1012B0000E9445246EE080E00E94462560E086EBB7
:1012C00091E03DC080E00E94462560E08CEB91E01B
:1012D0000E94452463E080E00E94462580917806C4
:1012E0000E94910C813059F030F0823069F460E056
:1012F0008EEC91E007C060E082EC91E003C060E01A
:1013000088EC91E00E94452466E080E00E9446253A
:10131000609164026695617084ED91E00E944524BD
:1013200068E080E00E9446258091640282FF04C04C
:1013300061E089ED91E003C060E08FED91E00E94F3
:10134000452480915E03882309F4E0C0209157046E
:10135000309158042115310509F4D8C080918602D6
:101360008111D4C0282E312C6201082E02C0CC0C71
:10137000DD1C0A94E2F7A9014C215D21452B11F4F3
:101380008F5FF0CF90918502910165E0220F331FAE
:101390006A95E1F790FD12C08295880F8076809360
:1013A0002201220F232F221F330B31952093250179
:1013B000815E809323011092260112C045E036958C
:1013C00027954A95E1F7220F220F220F2093220141
:1013D00010922501295F2093230183E08093260149
:1013E00024E630E047E050E060E271E088E70E94E8
:1013F0006A2D892B09F08AC08091850280FD21C069
:10140000C10125E0880F991F2A95E1F7AC01475AE1
:101410005B4F04E610E020E230E060E488E70E94E1
:10142000912D892B09F072C0C094D09480915704FB
:1014300090915804C822D922D0925804C0925704DF
:1014400065C080E2E5E6F2E0DF011D928A95E9F7EA
:1014500095E0220C331C9A95E1F7E9EFF1E0FCAB43
:10146000EBAB45EF51E0ABA9BCA98D91BCABABABED
:10147000FA019191AF019101290F311DB901675A0C
:101480007B4F7AAB69AB90E08B599D4FFC0107E035
:101490009F01281B390B842C01C0880C2A95EAF780
:1014A00069A97AA9912CDB011D91BD011821202F7A
:1014B00029192770722E022E000C330BB12F01C098
:1014C000BB0F7A94EAF77B2E31952195310927706D
:1014D000332701C016952A95EAF7712A1081712ADF
:1014E0007082939428E09212DECF015031960F3F24
:1014F00079F66BA97CA96D5F714009F0B4CF04E661
:1015000010E020E230E045E652E087CF80915D03B5
:101510008823B9F00E940E230091590310915A03B9
:1015200020915B0330915C03DC01CB01801B910BAC
:10153000A20BB30B8F3F9F4FAF4FBF4710F40E94DA
:101540000524A11001C0B1100E941F240E947B231A
:1015500090918902891721F00E947B238093890250
:1015600080916E06843009F0E8CC83E08093E90036
:101570008091E80082FFE1CC8091E80085FF23C0E4
:101580000E947C2081111DC080E2C82ED12C8E01CA
:101590000F5F1F4F09C08091F100D8018D938D011D
:1015A000B1E0CB1AD10869F08091E80085FDF3CF56
:1015B0008091E8008B778093E8000E947C2088234C
:1015C00099F391E001C090E08091E8008B778093DF
:1015D000E800992309F4B1CCE9818E2F90E0FC0159
:1015E0003197E331F10508F053C1EA5AFF4F0C94EB
:1015F00069301A8289E0ADC08A81823009F488C1DD
:10160000833049F08130A9F40E940E239B838C83A0
:101610007D836E833FC1FE013396AFA5B8A98D913E
:10162000B8ABAFA781932DA53EA52E173F07A9F70D
:1016300031C1C7010E94D42780CC8A81823049F40D
:101640006B817C818D819E810E946F3086E290E06B
:1016500028C0C7010E94D4271DC14C816B818A819B
:101660000E94D2239D835BC10D811E81102701271B
:1016700010278C81CB809A813EE0C39E60011124AB
:101680004CE8949FC00CD11C1124C80ED11CC80E6C
:10169000D11C612FC60187960E941530602FC601AC
:1016A00088960E941530F6C00E949E23F3C08A815E
:1016B0008138B1F050F4803809F0ECC020E04B8163
:1016C00060917B0680917A0621C08238D9F08338F8
:1016D00009F0E0C020E040917C066C818B8116C04F
:1016E0008B810E9471278B81811103C00E941A2770
:1016F000D1C08091790681608093790686950E9499
:101700007127C8C08B8180937D06C4C00E947A2651
:10171000C1C08A81813899F030F4803809F0BAC0AC
:1017200080917C0616C0823891F0833809F0B2C0EF
:1017300080917A068B8380917B068C83ABC08091ED
:10174000790680FF02C0869504C080E002C08091C7
:101750007D068B839FC06091790670917A06809197
:101760007B0690917C060E940B2C94C080E14DC0BA
:1017700081E08A838DE1EDCF0A811B81102701274B
:101780001027AC80B12C6701C8018D519D4F960187
:101790002E193F092A153B0508F07CC00D3161E088
:1017A000160730F40E940130D60114968C9302C0C3
:1017B000F60114820F5F1F4FFFEFCF1ADF0AE4CF4D
:1017C0000A811B81102701271027AC80B12C6701EB
:1017D000C8018D519D4F96012E193F092A153B05D1
:1017E00008F058C00D3121E0120728F4D6011496F4
:1017F0006C910E9415300F5F1F4FBFEFCB1ADB0AB1
:10180000E7CF0E948E2346C085E08A8343C00A81C9
:101810001B81102701271027AC80B12C6701C8015C
:10182000879696012E193F092A153B0598F50C3B22
:10183000E2E01E0730F40E940130D60114968C932A
:1018400002C0F60114820F5F1F4FFFEFCF1ADF0AAD
:10185000E6CF0A811B81102701271027AC80B12C0D
:101860006701C801879696012E193F092A153B0585
:1018700088F40C3B22E0120728F4D60114966C91F0
:101880000E9415300F5F1F4FBFEFCB1ADB0AE9CF65
:101890008FEF898380916E06843009F04ECB1091D2
:1018A000E9001F709091EC00892F817090FD80E815
:1018B000182B82E08093E9008091E80080FF0CC043
:1018C00040E050E060E270E0C7010E941C28809177
:1018D000E8008E778093E8001F701093E9002DCB0D
:1018E00009BD19BD09B400FEFDCF8091D8008F7DE0
:1018F0008093D8008091E00082608093E000809126
:10190000E00081FDFCCF109261060E94B4191CCB4F
:1019100086E290E00E9401301B821C821D828E8331
:10192000B9CF982F92959F7019F0892F24E001C0AC
:1019300020E0982F9695969511F02E5F892F982F7D
:10194000969509F02F5F822F0895982F927249F093
:1019500081E00E94712720E04FEF60E88AEE0C944E
:101960007A26811102C00C9487270895CF93C82F3F
:101970000E94910C8230E1F060F48823B1F0813054
:1019800041F581E00E94712720E04FEF6FEF80E08A
:101990001EC08330A9F08430E1F481E00E947127F9
:1019A00020E04FEF6FEF8AEA12C00E94872711C034
:1019B00081E00E94712720E04FEF6FEF85E507C0BF
:1019C00081E00E94712720E04FEF6FEF8BE20E94D1
:1019D0007A268C2FCF910895DF92EF92FF920F938A
:1019E0001F93CF93DF93CDB7DEB767970FB6F89409
:1019F000DEBF0FBECDBF4B8B5C8B162F6D8B7E8BEE
:101A00008F8B611110924A03DE011D9686E0FD0165
:101A100011928A95E9F785E0FE01739601900D9287
:101A20008A95E1F7DB880C89EE88FF8880914D026A
:101A300082FD26C00E941A232091FF0230910003EC
:101A4000821B930B803A9F4040F08091010382FB00
:101A5000992790F981E0892701C080E080FF03C0C9
:101A600082E00E946B190E941A2320910303309197
:101A70000403821B930B803A9F4010F00E94FE15D6
:101A8000DD860E871F87F98AE88A86E0FE013D968B
:101A9000DE01179601900D928A95E1F7CE01079627
:101AA0000E94FE1681113EC086E0FE013796DE01DF
:101AB000119601900D928A95E1F7FF81E8856A857C
:101AC0007B856115710531F0EF3F31F481E0FF3F17
:101AD00019F403C081E001C080E080FD23C02091A3
:101AE000CC0230E0C9010196877099274091FD0230
:101AF00050E08417950779F1F983EA837D836C833D
:101B000096E0929FD001939FB00D1124A353BD4F37
:101B1000FE01319601900D929A95E1F78093CC02E7
:101B20000E94201616E08091FD029091CC02891748
:101B300009F1189FC001112483539D4F0E94FE1686
:101B40008823C1F08091FD0290E00196877099276B
:101B50008093FD02E8CF109261060E94B4191092A2
:101B6000CC021092FD02E6ECF2E086E0DF011D926D
:101B70008A95E9F767960FB6F894DEBF0FBECDBF22
:101B8000DF91CF911F910F91FF90EF90DF9008951B
:101B90000F931F93CF93DF93CDB7DEB7A8970FB600
:101BA000F894DEBF0FBECDBF811140C006E06623B2
:101BB000F1F00CA311E01DA31EA30E941A23816063
:101BC000782F98A78FA34CA15DA16EA188A50E9434
:101BD000EC0C0F8F18A319A20E941A238160782F92
:101BE0009BA38AA34F8D58A169A18BA160C00A8FC6
:101BF00013E01B8F81E08C8F0E941A238160782F65
:101C00009E8F8D8F4A8D5B8D6C8D8E8D0E94EC0C1E
:101C10000D8B1E8B1F8A0E941A238160782F998F4B
:101C2000888F4D895E896F89898D41C0813009F027
:101C300040C06623F1F016E0188B198B8A8B0E9446
:101C40001A238160782F9C8B8B8B488959896A89EC
:101C50008C890E94EC0C1B871C871D860E941A230E
:101C60008160782F9F878E874B855C856D858F85FA
:101C70001EC006E00E8318E01F8388870E941A2387
:101C80008160782F9A8789874E815F8168858A85F0
:101C90000E94EC0C09831A831B820E941A23816024
:101CA000782F9D838C8349815A816B818D810E941D
:101CB000EC0C81E0A8960FB6F894DEBF0FBECDBF46
:101CC000DF91CF911F910F9108953F924F925F92B4
:101CD0006F927F928F929F92AF92BF92CF92DF923C
:101CE000EF92FF920F931F93CF93DF93CDB7DEB7A1
:101CF00029970FB6F894DEBF0FBECDBFFC018081DF
:101D0000918123813481232B31F09F3F31F491E085
:101D10008F3F19F403C091E001C090E090FD56C5DB
:101D20007F0185E0DE01119601900D928A95E1F721
:101D3000F701228189819A81222349F00E94961617
:101D4000182F682F89819A810E94CB1803C00E94A6
:101D50009F18182F69817A81812F0E94F8238C01A6
:101D6000F7018281882309F402C1980122513F457D
:101D70002031310508F03CC18FEF93E00E94013023
:101D80008111FFC0025123EE822E22E0922E002309
:101D900079F08114F4E09F0609F4F3C0C4010E94B5
:101DA0000130811101C001502FEF821A920AEFCF4A
:101DB0001E821F8218861986442443949AE0392E85
:101DC00084010F5F1F4FC4010E9401308E831F8268
:101DD000882309F4D6C09FEF980F933060F48F8367
:101DE0004E8232E0830E911CC8010E940130888728
:101DF000811102C0C6C048018E010A5F1F4FF80161
:101E000020812223E9F2213009F053C08181813001
:101E100081F46801F2E0CF0ED11CF8018281893390
:101E200019F460E570E002C06AE070E00E94DA2B0D
:101E30000AC0823051F46801F2E0CF0ED11CF801E3
:101E400082810E94622B86018FC0833049F4680131
:101E5000F2E0CF0ED11CF80182810E94312BF3CF2A
:101E6000843019F00F5F1F4F7FC0F80122810E5F91
:101E70001F4F80E090E030E0205331092A303105D7
:101E800068F4389EA001399E500D1124C901840FB9
:101E9000951F0F5F1F4FF8012081EDCF009709F4C8
:101EA00063C0EFE9FFE03197F1F700C00000019750
:101EB000F5CFE22FF0E0E259FE4F5490822F869545
:101EC0008695869590E0FC01E25AFE4F649027705B
:101ED000712C022E02C0759467940A94E2F7F1E027
:101EE0006F227724FC01E25BFE4FA490B12C022EFE
:101EF00002C0B594A7940A94E2F731E0A322BB2470
:101F0000FC01E25CFE4FC490D12C02C0D594C79472
:101F10002A95E2F781E0C822DD246114710419F0EA
:101F200081EE0E94622BA114B10409F458C086EE20
:101F30000E94622B99E3591609F44BC06AE070E0E5
:101F4000852D0E94DA2BAB2819F086EE0E94312BEA
:101F5000672819F081EE0E94312BCD2829F06AE024
:101F600070E08CE20E94DA2B0F5F1F4F48CF0031E8
:101F70009FE5190709F023C481E00E945F190E94C0
:101F8000C92780910103877009F420C4F701828179
:101F9000882309F41BC480914D0282FD17C482E09E
:101FA00029960FB6F894DEBF0FBECDBFDF91CF915B
:101FB0001F910F91FF90EF90DF90CF90BF90AF9067
:101FC0009F908F907F906F905F904F903F900C9478
:101FD0006B1960E570E089E30E94DA2BB6CFF9E374
:101FE0005F12ACCF60E570E089E30E94DA2BB0CFDE
:101FF00000312FE5120711F481E005C001313FE502
:10200000130721F482E00E94A519B9CF0138FFE53A
:102010001F07D1F4882399F08091A202811106C094
:1020200081E08093A20282EE0E94622B0E941A231A
:1020300081EE0E94622B8BE20E94622B78C081EEBF
:102040000E94312B8BE21DC002382FE51207E0F011
:1020500003389FE51907B1F108F041C0882309F45E
:1020600066C081EE0E94622B83EE0E94622B8FE499
:102070000E94622B8FE40E94312B83EE0E94312B51
:1020800081EE0E94312B53C0053E110539F4809337
:10209000A1021093A00200939F0249C000383FE5BF
:1020A000130709F044C0882369F28091A2028111CC
:1020B00006C081E08093A20282EE0E94622B0E9401
:1020C0001A23B9CF882399F181EE0E94622B83EE07
:1020D0000E94622B80E50E94622B80E5CCCF043801
:1020E000FFE51F0721F5882389F08091A10288234D
:1020F00049F080919F020E94312B80EE0E94622B5A
:102100008CE401C08AE20E94622B3BCF8AE20E94EB
:10211000312B8CE40E94312B80EE0E94312B809178
:10212000A102882309F42DCF80919F02ECCFF70103
:1021300082818111A1C0809161068272093CECE527
:102140001E0709F483C0E8F4053C2CE5120709F4E6
:102150006EC058F4033C9CE5190709F45EC008F012
:1021600061C0023C1C4579F1BAC0073C2CE512075E
:1021700009F462C008F065C041E157E268E077E227
:1021800073C00D3C9CE5190709F471C060F40B3C69
:10219000FCE51F0709F45FC008F062C044EE56E298
:1021A00068ED76E261C0063D3CE5130738F40F3C6C
:1021B0001C4508F0E6CE0E94BA27E3CE0D351D453A
:1021C00009F4DFCE8CC08091790680FF20C08E7F1D
:1021D000809379066091790670917A0680917B06EA
:1021E00090917C060E940B2C0E94C0258091550482
:1021F000816080935504EFEFF0E722E0E150F0407A
:102200002040E1F700C000000E94E225BACE8160C4
:102210008093790661E086952CC044E757E26DE72C
:1022200077E222C04DE757E264E777E21DC048E05D
:1022300057E261E177E218C040EF56E26CEF76E2D8
:1022400013C04CEF56E260EF76E20EC048ED56E266
:1022500064EE76E209C042E654E263E774E204C049
:1022600043E754E262E674E20E94BA258ACE61E056
:1022700081E00E94312785CE0A353DE5130751F1F3
:1022800050F401159CE51907A9F00E3D1C4539F5E0
:102290000E94941576CE0B35FDE51F07E9F00C354D
:1022A0001D45E9F480914D0282FB882780F991E079
:1022B000892713C0109261060E94B4193FEF84E38E
:1022C0009CE0315080409040E1F700C000000E9447
:1022D000992257CE81E001C080E00E948819F70161
:1022E000828100811181882349F0C8010E949616DD
:1022F000D82E682FC8010E94CB1804C0C8010E94C4
:102300009F18D82EB8018D2D0E94F8230E94FE132D
:10231000C82E192FA82EF701D280058102950F70C3
:10232000809101038770B9F0DD20A9F0892F807FAB
:10233000803421F080E28C0D883068F080914D026D
:1023400082FD09C082E00E946B19809101038770B1
:10235000BB24B3948111B12C912E92948FE09822DA
:10236000892D90E08C30910508F0F3C1FC01E7590C
:10237000FF4F0C946930812F807F1F70882311F0EC
:102380001295107FDD20B9F0112309F4CAC180E253
:102390008C0D883010F0A11006C080916106182BBA
:1023A0001093610605C080914A03182B10934A03CD
:1023B0000E940E19B6C18C2D0E94312B112309F4F5
:1023C000C8C180E28C0D883088F1AA2079F110957F
:1023D00080914A03182310934A032BC0812F807FDA
:1023E0001F70803211F01295107F8C2DAA2029F0D9
:1023F000F1E0AF1609F451C05AC080914D0282FF3E
:102400001BC0DD2069F0112339F080916106812B1A
:10241000809361060E940E1980E00E94622B99C190
:1024200080E00E94312B112309F493C1812F0E9477
:102430000C160E940E198DC1DD20D9F00023A9F0E1
:10244000013031F480914B03812B0E94F61881C139
:10245000043059F40E94FE158091FE021813109367
:10246000FE02812F0E94272B74C180914B03812B88
:10247000F9CF002349F0013069F48091610681238E
:1024800009F467C10E941A160E94FE15812F0E944E
:10249000202B5FC10430C1F75CC1DD2021F0033087
:1024A00008F057C1DECF023008F053C1EFCFDD2076
:1024B00049F00023B1F2F701858180FF32C18F70AE
:1024C0008583CFCF002311F3893309F039C1FFEFA2
:1024D00027EE33E0F15020403040E1F735C1812F45
:1024E00086958695837019F0813061F032C1DD20C8
:1024F00021F08C2D912F937002C080E090E00E941B
:1025000065232DC1DD2021F08C2D912F937002C009
:1025100080E090E00E944F2322C1812F8370A9F5B3
:10252000D1101BC14C2D429546954770440F440F66
:102530008C2D8F7090E09C01042E01C0220F0A9414
:10254000EAF7C4FE08C08FE090E001C0880F4A950A
:10255000EAF7809501C080E0169516951370123049
:1025600069F088F490914103113019F0822B89238E
:1025700002C0922B892B0E94B019EFC0822B909140
:1025800041038927F8CF822BF6CFDD2019F0812F68
:10259000817001C08695882309F4DFC04C2D4295D7
:1025A00046954770440F440F8C2D8F7090E09C012E
:1025B000042E01C0220F0A94EAF7C4FE08C08FE07F
:1025C00090E001C0880F4A95EAF7809501C080E04D
:1025D000169516951370123059F078F4909178068C
:1025E000113019F0822B892309C0922B892B06C048
:1025F000822B90917806892701C0822B0E9459195D
:10260000ACC01F70DD2039F0812F0E94A5198C2DE0
:102610000E94272BA2C08C2D0E94202B812F0E946C
:102620005F199BC08C2D92EFA91679F19A1538F09D
:10263000E0EFAE1659F0F1EFAF1601F16DC023EFE8
:10264000A21651F134EFA316A9F066C0DD2071F097
:10265000023008F07EC01F7181E090E001C0880F59
:102660001A95EAF790917806892720C0033008F080
:1026700070C0F1CF80914D0282FF1BC0DD2039F088
:10268000812F8F710E94A51964C0DD20C9F3812FAD
:102690008F710E945F195DC0DD2039F01F7181E0EC
:1026A00001C0880F1A95EAF701C080E00E9459190D
:1026B00050C0DD20D1F08091FE020E940C16809166
:1026C00001038770843039F40E941316812F8F71B3
:1026D0000E945F1972C0043008F06FC01F71812F13
:1026E0000E94A51963E0812F10C09091610680912E
:1026F000FE02892B80936106043050F00E9413166D
:102700000E941A1664E0812F8F710E94BD1955C076
:1027100081E00E946B1951C0DD2029F0002309F4EB
:10272000AFCF8C2D7ACE002309F4B1CF893341F499
:102730008FEF97EEE3E081509040E040E1F704C076
:102740008FE39CE90197F1F700C000008C2D0E94F7
:10275000312B88EF890D843010F40E947B23BB203D
:10276000A9F18091010380FD31C0F70112828595A6
:10277000859585950E94A519C7010E94650E8091D7
:10278000010385958595859529960FB6F894DEBF4A
:102790000FBECDBFDF91CF911F910F91FF90EF90B2
:1027A000DF90CF90BF90AF909F908F907F906F9071
:1027B0005F904F903F900C945F19B12CCECF0131B8
:1027C000EFE51E0709F022CC82E0D7CB29960FB6A1
:1027D000F894DEBF0FBECDBFDF91CF911F910F9157
:1027E000FF90EF90DF90CF90BF90AF909F908F9031
:1027F0007F906F905F904F903F900895CF93DF93BD
:102800008238910569F1B0F48133910509F46FC004
:1028100048F48932910509F465C08A32910509F4BA
:102820006BC08AC08533910509F457C0893391057F
:10283000B9F082C0833E910571F138F4803E910574
:10284000B1F0823E910511F177C0863E9105B9F154
:10285000873E9105C9F1843E910509F06DC024C001
:1028600020914C0220FD53C021FD51C065C08091D4
:102870004C0280FD46C080914D0280FF48C080918F
:102880004C0284FD3FC183EE90E03EC180914C023A
:1028900082FF3AC0F4CF80914C0282FD35C0809116
:1028A0004D0280FD34C0EBCF80914D0281FF35C0D9
:1028B00080914C0284FD26C187EE90E025C1809175
:1028C0004C0283FF27C0F4CF80914C0283FD22C0CD
:1028D00080914D0281FD21C0EBCF80914C0285FD9E
:1028E0001FC021C080914C0285FD1DC019C0809180
:1028F0004C0286FD1BC01DC080914C0286FD19C094
:1029000015C089E390E000C182EE90E0FDC080EE4A
:1029100090E0FAC086EE90E0F7C084EE90E0F4C05C
:1029200089E290E0F1C085E390E0EEC08AE290E0B9
:10293000EBC081E390E0E8C0811532E5930708F031
:1029400069C0811541E5940728F0982F8827816F89
:10295000906ADAC0883E910568F5803E910508F0DE
:10296000D3C0883A9105B8F4853A910548F0855A64
:10297000E82FF0E0E350FE4F808190E09064C4C007
:102980008130910509F4BBC008F4BCC084309105C6
:1029900008F4B8C0B9C08F3B910508F0B3C0885A9D
:1029A000E82FF0E0EE0FFF1FE050FE4F8081918195
:1029B0009464AAC0811520E59207F0F09C0174E0B0
:1029C000369527957A95E1F7922F9370482F4370AB
:1029D00021E030E002C0220F331F4A95E2F73C6845
:1029E000392B8F70982F9695969540E2949FC00151
:1029F0001124822B932B88C0811530E4930718F0A3
:102A00009F70906A81C09C013A9521153F4108F45E
:102A10007BC078C0EC01C11586E5D807E8F5C11583
:102A200025E5D20748F08C2F0E943F1D8F7190E062
:102A3000982F8827906268C0C11534E5D30728F025
:102A40009C2F8827846F906A5FC0AE014370552722
:102A50002C2F26952695C115D34578F481E090E07A
:102A600002C0880F991F4A95E2F740E2249F900127
:102A70001124822B932B9C6847C081E090E002C018
:102A8000880F991F4A95E2F740E2249F9001112494
:102A9000822B932B9A6838C0C1152AE5D207F8F427
:102AA000C11539E5D30790F08C2F8F700E943F1D20
:102AB00094E0D695C7959A95E1F7CF70D0E0DC2FDA
:102AC000CC27D0699E01282BC9011EC0C11548E53D
:102AD000D407C0F09C2F8827806F906A15C0CE0164
:102AE00090568115904270F48D2F8F710E943F1D7A
:102AF000282F2F71CE0199279062922B05C081E07B
:102B000090E002C080E090E0DF91CF9108950C94B6
:102B10000E2380E090E00E940F30893E9E4F11F41A
:102B20000C94A12580E0089569EE7EEF80E090E0AE
:102B30000E94333060E082E090E00E94153060E057
:102B400083E090E00E9415301092410360E084E041
:102B500090E00E94153060E082E290E00E94153023
:102B600060E085E090E00E94153060E086E090E053
:102B70000E9415306FEF87E090E00E94153040E032
:102B800050E0BA0188E090E00E94273060E08DE0DC
:102B900090E00E94153040E050E0BA0188E190E0FA
:102BA0000E94273060E087E190E00E94153040E00D
:102BB00050E0BA018CE190E00E94273060E070E0C4
:102BC00080E290E00E94333040E050E0BA0188E1BA
:102BD00090E00E94273080E00E9474250E94922598
:102BE00040E050E0BA018FE090E00E94273040E0E2
:102BF00050E0BA0183E190E00C94273080914B03C0
:102C0000882349F010924B0310920403109203039F
:102C100080E00C94A50C089580959091610689231D
:102C200080936106089510920103109200031092A0
:102C3000FF0208958091FE0281111092FE02089514
:102C40008091FD029091CC02891719F08F5F8770F7
:102C5000FBCF08950F931F93CF93DF938091CB0207
:102C600082958F7009F05DC08091C802882309F4B5
:102C700058C08091FD021091CC026091C602709103
:102C8000C702C091C902D091CA0291E06F3F09F01A
:102C900090E0292F06E0811709F443C0209721F026
:102CA0007F3F21F030E003C031E001C0322F90E0DF
:102CB00030FD34C0089FF001099FF00D1124DF01A1
:102CC000A353BD4F11963C911197371327C03C91E8
:102CD000361324C012963C91129731111FC01396DF
:102CE0004D915C9114974C1B5D0B403A5105B0F42B
:102CF0008091CB028F7080618093CB02EE52FD4FAA
:102D000080818F708061808386EC92E00E94650EE6
:102D1000DF91CF911F910F910C942016019687702F
:102D2000BACFDF91CF911F910F910895CF92DF928B
:102D3000FF920F931F93CF93DF936C01009178065E
:102D400080914103082BC7E0D0E010E0C8010C2EB1
:102D500002C0959587950A94E2F780FD04C02197FB
:102D6000A8F7F12C09C0FC2EB6018C2F0E94F82385
:102D70000E94FE13019799F38F2DDF91CF911F9140
:102D80000F91FF90DF90CF900895CF93DF93EC01E8
:102D90000E949616BE010E94F8230E94FE13DF9146
:102DA000CF910895FC01808191810E94C516292F41
:102DB0002F70E92FE295EF704E2F50E0FA01329715
:102DC000EE30F105B8F4EB58FF4F0C946930803FBA
:102DD00099F018F4883E70F40FC0843F59F40CC089
:102DE000883E50F0813F31F407C0822F869586954A
:102DF0008695089580E0089581E008959F92AF92AE
:102E0000BF92CF92DF92EF92FF920F931F93CF93D7
:102E1000DF93CDB7DEB761970FB6F894DEBF0FBE74
:102E2000CDBF8C0185E0F801DE011D9601900D9269
:102E30008A95E1F7F801E2809091C6026091C7029D
:102E40004091C9025091CA024115510531F06F3FBE
:102E500031F481E09F3F19F403C081E001C080E0BC
:102E6000F82FF1709F2E80FD1AC1F8013081218169
:102E7000C380D48086ECA82E82E0B82EF090C802E1
:102E8000F601E41BF50BFF2009F4C6C08091CB02CC
:102E9000E03AF10508F091C0482F407F09F050C09A
:102EA000621311C093130FC0FE2CE1100CC08F7081
:102EB00080618093CB02C5010E94650E8091CB0298
:102EC000F801858329C1CD2831F02F3F31F481E00D
:102ED0003F3F19F403C081E001C080E080FD03C0E2
:102EE00081E08E2502C080E090E0F82FF170FF2E87
:102EF00080FF1CC08091FD024091CC0256E08417F7
:102F000009F4E8C090E0589FF001599FF00D11249A
:102F1000E353FD4F6181261306C06081631303C034
:102F20006281E61203C001968770E9CFFE2CEE2085
:102F300009F4F2C08091CB0281608093CB0249C03A
:102F4000621306C0931304C0E11002C0F80186C0EA
:102F5000C8010E94D216882351F1EE2041F1209140
:102F6000CB02822F82958F7090E0029774F080914F
:102F7000C6029091C70298878F831986DB86CA861E
:102F80002C87CE0107960E94650E86E0F801A6EC1C
:102F9000B2E001900D928A95E1F70E942A160AC0CC
:102FA0006217C9F0C8010E94D21681111EC0C80163
:102FB0000E94650EFF24F394AFC0482F407F81F735
:102FC00086EC92E00E94650E86E0F50111928A95EA
:102FD000E9F7F12CA1C09313E5CFE110E3CFF8019D
:102FE0008583C8010E94650E54C0EE2001F3209134
:102FF000CB02822F82958F7090E0029734F28091FD
:10300000C6029091C7029A8389831B82DD82CC829B
:103010002E83CE010196B7CFE03AF105D0F5FE2C14
:10302000EE2029F2621327C0931325C02091CB0212
:1030300020FD18C0822F82958F70482F50E04115D7
:10304000510581F0F80125834F30510541F08F5F24
:10305000982F9295907F822F8F70892B8583C8013E
:103060000E94650E86E0F801A6ECB2E001900D9298
:103070008A95E1F751C0C8010E94D216811185CF0F
:103080008091CB0281608093CB02C8010E94650EC3
:1030900043C086E0F50111928A95E9F73DC0EE2024
:1030A00009F485CFC8010E94D216F82E882309F4AE
:1030B0007ECF86E0F801A6ECB2E001900D928A95F1
:1030C000E1F78091C6029091C7020E94C5160E9446
:1030D0002A1622C03D872E878D859E850E94C516A3
:1030E000292F22952F70223028F49F7039F08111FA
:1030F00005C00BC0243028F49F7049F4805E8830EE
:1031000020F0C8010E94650E9F2CF92C05C0F80123
:103110009581907F99F7F9CF8F2D61960FB6F8942E
:10312000DEBF0FBECDBFDF91CF911F910F91FF90FA
:10313000EF90DF90CF90BF90AF909F90089527E0E1
:10314000929F800D1124682F669566956695982F3D
:10315000977083E0689FB001112440E050E080E068
:10316000FB01E40FF51FE555FD4F208130E0092EEE
:1031700002C0369527950A94E2F721703327042E72
:1031800001C0220F0A94EAF7822B4F5F5F4F433052
:10319000510531F7089527E0929F800D1124E82F03
:1031A000E695E695E695877051E001C0550F8A9542
:1031B000EAF783E0E89FF0011124E555FD4F20E098
:1031C00030E070E04081CB01022E02C096958795D9
:1031D0000A94E2F78170819584278523842781935F
:1031E0002F5F3F4F2330310569F70895CF939091BA
:1031F0004D0292FD11C090914B03981769F0C82FB2
:103200000E941A239093040380930303C0934B03FB
:103210008C2FCF910C94A50CCF91089590916106BD
:1032200080914A03892B90910203892B8093A302FA
:1032300080914B03882311F10E941A2320910303EC
:1032400030910403821B930B803A9F4010F00E9440
:10325000FE159091A30280914B03892B8093A302CA
:10326000E5EAF2E097E080E0915029F021912223F5
:10327000D9F38F5FF9CF81110E94FE15E0916203AF
:10328000F0916303309731F00280F381E02D83EAFF
:1032900092E00994089580E090E00E94652380E028
:1032A00090E00E944F2310924A03109202030C9464
:1032B0000E190E94B60C809378060C944B1921E0ED
:1032C00030E001C0220F8A95EAF7209580917806B8
:1032D00082230C94591920910103809582238093B5
:1032E0000103982F977099F430E0482F082E000CB6
:1032F000550B2417350759F090914D0292FD07C0E8
:103300008595859585950E945F190C9413160895EF
:10331000CF93C0914D02C2FB992790F9981799F06D
:1033200080FBC2F9C0934D0260914C0284E090E0B2
:103330000E9415306C2F82E290E00E94153082E0EE
:10334000CF910C946B19CF91089521E030E001C02A
:10335000220F8A95EAF780917806822B0C945919EE
:10336000809341030C944B1986E0E5EAF2E0DF011B
:103370001D928A95E9F70C944B1990914D0292FD9C
:1033800010C098E0899F90011124262B20930103FF
:103390000E94A5190E941A23909300038093FF02B4
:1033A00008950C94A51980E00895AF92BF92CF9232
:1033B000DF92EF92FF920F931F93CF93DF937C01E5
:1033C0005B016A01809158038A3018F001E010E037
:1033D00002C00AE010E0C1E0D0E0F894B501C701F6
:1033E000F60109957894811115C021960C171D07D7
:1033F00094F0CC9F9001CD9F300D300D112480E0D2
:1034000090E045E34A95F1F7000001968217930793
:10341000C1F7E3CF81E0DF91CF911F910F91FF9032
:10342000EF90DF90CF90BF90AF900895EF92FF9212
:103430000F931F93CF93DF937901C82F880FDD0B74
:1034400041155105A9F08AE08C9FF0018D9FF00D88
:103450001124E95DFE4F838194818F5E9C4F228110
:1034600030E04217530708F49A01A9010E949030F6
:10347000CE010E942C2F892B09F50115110501F1B0
:103480008AE08C9FF0018D9FF00D1124E95DFE4FC5
:10349000458150E00417150708F4A8018AE08C9FC5
:1034A000F0018D9FF00D1124E95DFE4F668177815B
:1034B0006F5E7C4FC7010E94903002C080E001C067
:1034C00081E0DF91CF911F910F91FF90EF900895D0
:1034D0000F931F93CF93DF9300D01F92CDB7DEB72A
:1034E00060914C0370914D0380914E0390914F0376
:1034F0000E94E32241E0643671058105910508F4DC
:1035000040E030916106398364367105810591058B
:1035100020F420912003231341E090914A039A83E1
:10352000411106C041E020912103291301C040E070
:1035300090914B039B83411106C080912203891314
:1035400002C011E019C000E010E020E030E043E0EC
:1035500050E0BE016F5F7F4F88E00E94161A182F5F
:10356000882351F00E940E2360934C0370934D0307
:1035700080934E0390934F03812F0F900F900F90E5
:10358000DF91CF911F910F910895AF92BF92CF928B
:10359000DF92EF92FF920F931F93CF93DF93C82F89
:1035A0007B01D42F69015801FB0160817181828107
:1035B00093810E94E322643671058105910510F420
:1035C000DD23A1F000E010E020E030E0A501B6012D
:1035D0008C2F0E94161AC82F882349F00E940E23B0
:1035E000F701608371838283938301C0C1E08C2FD4
:1035F000DF91CF911F910F91FF90EF90DF90CF90CF
:10360000BF90AF9008950F931F93CF93DF931F92B6
:10361000CDB7DEB780915D03898320912B0330E025
:1036200090E041E02817390709F440E001E010E09C
:103630009E012F5F3F4F64E573E08AE00E94C51A48
:103640000F90DF91CF911F910F9108950F931F93CA
:10365000CF93DF93CDB7DEB728970FB6F894DEBFD0
:103660000FBECDBF85E0E9E7F6E0DE0111960190DF
:103670000D928A95E1F78091530490915404A091A2
:1036800055048E839F83A88741E08885811101C0FE
:1036900040E008E010E09E012F5F3F4F60E573E0DF
:1036A00089E00E94C51A81111092550428960FB620
:1036B000F894DEBF0FBECDBFDF91CF911F910F9168
:1036C00008950F931F93CF93DF931F92CDB7DEB76B
:1036D0000E947B23898341E090911F03981301C0CE
:1036E00040E001E010E09E012F5F3F4F66E473E091
:1036F00087E00E94C51A0F90DF91CF911F910F9123
:1037000008950F931F9341E090911D0380917806D7
:10371000981301C040E001E010E028E736E062E4E1
:1037200073E085E00E94C51A882389F041E09091FA
:103730001E0380914103981301C040E001E010E0B6
:1037400021E433E06DE373E086E00E94C51A1F9127
:103750000F9108957F928F929F92AF92BF92CF92D6
:10376000DF92EF92FF920F931F93CF93DF931F92FD
:10377000CDB7DEB7762E4A015901680101E010E0AD
:103780009E012F5F3F4F40E050E060E070E00E94FC
:10379000161A182F882379F1F401608171818281D2
:1037A00093810E94E322643671058105910538F406
:1037B000B701C6010E945D2599818917E1F0870153
:1037C000950140E050E060E070E0872D0E94161AFD
:1037D000182FB701C6010E945D2591E029812813A9
:1037E00090E0192369F00E940E23F4016083718335
:1037F0008283938305C0A701B601C5010E94903062
:10380000812F0F90DF91CF911F910F91FF90EF903B
:10381000DF90CF90BF90AF909F908F907F90089552
:10382000CF92DF92EF92FF920F931F93CF93DF938C
:103830001F92CDB7DEB7EE24E394F12C08E113E03C
:103840009E012F5F3F4F45E353E063E082E00E941B
:10385000AA1BC82E882379F1D0905B028D2D90E0B1
:103860009C01215A3D4F79011981F9018081181B72
:10387000012F80E010165CF40150F70180818F5F0A
:10388000808360E08D2D0E94C80D81E0F3CF912FE1
:1038900017FD90E0191B112359F01F5FF70180817C
:1038A0008150808361E08D2D0E94C80D81E0F3CFAF
:1038B00081110E9487158C2D0F90DF91CF911F9160
:1038C0000F91FF90EF90DF90CF900895CF92DF920D
:1038D000EF92FF920F931F93CF93DF9300D000D00E
:1038E0001F92CDB7DEB76B0185E0E82EF12C02E127
:1038F00013E09E012F5F3F4F41E353E061E080E022
:103900000E94AA1B882349F095E0FE013196ACE2A3
:10391000B3E001900D929A95E1F795E0ECE2F3E0C7
:10392000D60101900D929A95E1F70F900F900F90AC
:103930000F900F90DF91CF911F910F91FF90EF901B
:10394000DF90CF90089580911003811118C080916D
:10395000D80080618093D8008AE18A95F1F700C091
:103960008091D90080FD02C082E001C081E0809397
:103970001003823021F40E945D2010926E0681E0D7
:1039800090911003913009F080E008950F931F93F8
:103990000E94A31C882321F01F910F910C940E23E9
:1039A0000E940E23009148021091490220914A0280
:1039B00030914B02600F711F821F931F1F910F9157
:1039C00008950F931F93CF93DF9300D000D0CDB70E
:1039D000DEB76091390370913A0380913B03909177
:1039E0003C030E94E322643671058105910528F1AC
:1039F0000E94C61CDC01CB010296A11DB11D89836A
:103A00009A83AB83BC8300E010E020E030E044E028
:103A100050E0BE016F5F7F4F84E00E94161A182F9E
:103A2000882361F00E940E236093390370933A0358
:103A300080933B0390933C0301C011E0812F0F90D2
:103A40000F900F900F90DF91CF911F910F910895DC
:103A5000F894E82FE295EF70F0E031A1282F2F7055
:103A600081E090E001C0880F2A95EAF7982F9095A1
:103A7000932391A392A1892B82A378940895909186
:103A80004C0292FF0DC0282F2871283019F4877F2F
:103A9000846006C0282F2471243011F48B7F886045
:103AA00093FF0DC0282F2871283119F4877E846177
:103AB00006C0282F2471243111F48B7E8861209157
:103AC0004D0220FF0DC0382F3871383019F4877F30
:103AD000816006C0382F3171313011F48E7F8860DB
:103AE00021FF0DC0282F2871283119F4877E8161AC
:103AF00006C0282F2171213111F48E7E886194FD3A
:103B0000877E08950E94A31C81110C941A230E94A1
:103B1000C61CCB0108957F928F929F92AF92BF9265
:103B2000CF92DF92EF92FF920F931F93CF93DF9389
:103B3000CDB7DEB72F970FB6F894DEBF0FBECDBF5F
:103B40009E012F5F3F4F79018AE0D9011D928A952E
:103B5000E9F707E011E069018CE0A82E81E0B82EBA
:103B600088248394912CF80180818F3F09F441C00F
:103B7000F894E82FE295EF70F0E021A18F70A40196
:103B800002C0440F551F8A95E2F7CA01922F982B65
:103B900091A392A18095892382A3789400C0E0E04C
:103BA000F1E0712C31E021912F3F89F0A22FA295F5
:103BB000AF70B0E090968C9190E02F7002C0959518
:103BC00087952A95E2F780FD02C0832F01C080E02F
:103BD000782A330F51E0E730F50729F7D8018C91A7
:103BE0008F3F11F00E94281DB0EABA95F1F7F60157
:103BF00070820F5F1F4FFFEFCF1ADF0AA016B106CA
:103C000009F0B1CF4AE050E0B7018EE492E00E94A3
:103C100083308C01892B41F08AE0F701AEE4B2E0F9
:103C200001900D928A95E1F7F09059020115110566
:103C300049F081E0809308030E941A2390930703C0
:103C400080930603809108038823B9F080910603CE
:103C5000909107030E94FF22069778F0AEE4B2E04D
:103C6000EF2DF0E0EB56FD4F83E592E02D9121938F
:103C70008A179B07D9F7109208030115110509F05F
:103C80005EC10E94A31CE09159029E01255F3F4F37
:103C90007901882309F497C085E0D9011D928A959E
:103CA000E9F70E2F10E00B561D4F809158038A3014
:103CB00050F446E65CE1B701C8010E94D51988239B
:103CC00009F457C00AC08091090390910A030E9429
:103CD000FF22843F914068F75DC040E15CE1B7019D
:103CE000C8010E94D519882309F443C041EE5CE164
:103CF000B701C8010E94D5198823D9F141E85BE1D9
:103D0000B701C8010E94D519882399F141E65BE10A
:103D1000B701C8010E94D519882359F148E65AE134
:103D2000B701C8010E94D519882319F146E25BE169
:103D3000B701C8010E94D5198823D9F043E05BE19F
:103D4000B701C8010E94D519882399F01092580331
:103D50008091580290E045E050E0B7018B569D4FAE
:103D60000E94833021E020930F03892BF1F400E0BF
:103D7000E8C0809158038F3F19F08F5F80935803FC
:103D8000809158038A3020F30E941A2390930A03EB
:103D90008093090380910F03882349F385E0F7019D
:103DA00011928A95E9F710920F03A0915802B0E0A2
:103DB000AB56BD4F85E0FE013B9601900D928A9572
:103DC000E1F701E0BEC0F0E0EB56FD4FF89485E06E
:103DD000A2E1B3E001900D928A95E1F765E070E011
:103DE00082E193E00E945D25809311037894F8941A
:103DF000E0916202F0E0E15AFD4F80818B87809371
:103E0000180361E070E0C7010E945D2580931703ED
:103E10007894F894C0901903D0901A03E0901B0393
:103E2000F0901C0380910B0390910C03A0910D0363
:103E3000B0910E03C816D906EA06FB06D1F0C0926F
:103E40000B03D0920C03E0920D03F0920E030E943C
:103E5000A31C81110EC00E940E23C61AD70AE80ABD
:103E6000F90AC0924802D0924902E0924A02F092C6
:103E70004B027894F89480911D038093780680918A
:103E80001E03809341037894F89480911F038093DC
:103E90005F037894F8948091200380936106809169
:103EA000210380934A03809122030E94F61878949C
:103EB000F89480912A038823A9F180FF10C0809193
:103EC000230380FF0AC09091790691609093790650
:103ED00060E086950E94312702C00E941A278091D7
:103EE0002A0381FF09C020E0409126036091250349
:103EF000809124030E947A2680912A0382FF09C0C0
:103F000080912903882319F00E94C72502C00E94CE
:103F1000C02580912A0383FF03C081E08093500471
:103F200010922A037894F89480912B03882319F037
:103F30000E941F2402C00E940524789402C001E060
:103F400010E0802F2F960FB6F894DEBF0FBECDBFC6
:103F5000DF91CF911F910F91FF90EF90DF90CF9065
:103F6000BF90AF909F908F907F900895089508958F
:103F700080916306089580936B0370936D03609343
:103F80006C0380916E068430F9F48093E9008FEF22
:103F90009091E800815095FD06C095ED9A95F1F756
:103FA00000008111F5CF8091E80085FF0DC040E051
:103FB00050E063E070E08BE693E00E941C28809163
:103FC000E8008E778093E8000895BC0184E00C94AB
:103FD000BB1FBC0183E00C94BB1FCF93DF9321E098
:103FE0002093E9002FEF3091E800215035FD06C005
:103FF00035ED3A95F1F700002111F5CF2091E80059
:1040000025FF14C0EC0140E050E068E070E00E9441
:104010001C288091E8008E778093E80088E0FE01FC
:10402000A4E6B6E001900D928A95E1F7DF91CF9179
:1040300008951F920F920FB60F9211242F933F9362
:104040004F935F936F937F938F939F93AF93BF93A0
:10405000CF93DF93EF93FF93C091E900CF708091EE
:10406000EC00D82FD17080FDD0E81092E90080914B
:10407000F000877F8093F00078940E944828109287
:10408000E9008091F00088608093F000CD2BCF7024
:10409000C093E900FF91EF91DF91CF91BF91AF9174
:1040A0009F918F917F916F915F914F913F912F9150
:1040B0000F900FBE0F901F901895E8EDF0E08081F3
:1040C0008E7F80831092E2001092DA001092E1005D
:1040D000A0EEB0E08C9181608C9380818F7780839B
:1040E00019BCA7EDB0E08C918E7F8C9380818F7E80
:1040F000808310926E0308952091E4003091E500D2
:1041000095E64091EC00842F817040FF23C08091A0
:10411000E80080FD1DC080916E06882399F08530EF
:1041200099F08091EB0085FD11C04091E400509121
:10413000E5002417350729F3915011F09A01E1CFDA
:1041400084E0089582E0089583E0089581E0089571
:1041500080E008954091E80042FFDDCF089580910E
:10416000700687FF11C08091E80082FD05C0809134
:104170006E068111F8CF11C08091E8008B770BC0DB
:1041800080916E06882349F08091E80080FFF8CF87
:104190008091E8008E778093E8000895982F9730FB
:1041A00068F59093E900981739F07091EC00209130
:1041B000ED005091F00003C0242F762F50E021FD38
:1041C00002C09F5FECCF3091EB003E7F3093EB005D
:1041D0003091ED003D7F3093ED003091EB00316088
:1041E0003093EB007093EC002093ED005093F000BF
:1041F0002091EE0027FDE5CF80E008958F70809339
:10420000E90081E00895CF92DF92EF92FF920F9341
:104210001F93CF93DF93C8EDD0E088818F7E888392
:10422000E7EDF0E080818160808384E082BF81E0FF
:1042300080936E0388818E7F888302EE10E0F80100
:1042400010821092DA0081EEC82ED12CF601108275
:1042500088818F77888388818068888388818F7D33
:10426000888319BC10926E0610926F0610926D062C
:1042700010926C0690EEE92EF12CF70180818B7F75
:10428000808388818160888342E060E080E00E94D2
:10429000CE20F60180818E7F8083F801808181604D
:1042A0008083808188608083F70180818E7F808316
:1042B000888180618883DF91CF911F910F91FF905A
:1042C000EF90DF90CF9008951F920F920FB60F924C
:1042D00011242F933F934F935F936F937F938F930B
:1042E0009F93AF93BF93EF93FF938091E10082FF81
:1042F00009C08091E20082FF05C08091E1008B7FC0
:104300008093E1008091DA0080FF2AC08091D8007C
:1043100080FF26C08091DA008E7F8093DA00809142
:10432000D90080FF18C080E189BD82E189BD09B450
:1043300000FEFDCF81E080936E0680916E038111B7
:104340000FC00E945D200E9403218091E2008460E2
:104350008093E20005C019BC10926E0610926E03A5
:104360008091E10080FF17C08091E20080FF13C0C0
:104370008091E2008E7F8093E2008091E200806174
:104380008093E2008091D80080628093D80019BCAD
:1043900085E080936E068091E10084FF30C08091BB
:1043A000E20084FF2CC080E189BD82E189BD09B4AF
:1043B00000FEFDCF8091D8008F7D8093D800809142
:1043C000E1008F7E8093E1008091E2008F7E8093F8
:1043D000E2008091E20081608093E20080916F06AC
:1043E000882311F084E007C08091E30087FD02C0BC
:1043F00081E001C083E080936E0680916E0680911B
:10440000E10083FF27C08091E20083FF23C08091F9
:10441000E100877F8093E10082E080936E06109236
:104420006F068091E1008E7F8093E1008091E20031
:104430008E7F8093E2008091E20080618093E200B1
:1044400042E060E080E00E94CE208091F000886031
:104450008093F000FF91EF91BF91AF919F918F9169
:104460007F916F915F914F913F912F910F900FBE70
:104470000F901F9018952091760630917706261799
:10448000370748F06115710539F42091E8002E775F
:104490002093E80001C0B901FC0120E0611571051D
:1044A00079F180916E068823F1F18530F1F18091E8
:1044B000E80083FD3CC08091E80082FD2EC0809121
:1044C000E80080FFEBCF2091F3008091F20090E0B4
:1044D000922B6115710551F08830910538F42191C6
:1044E0002093F100615071090196F3CF21E0089704
:1044F00009F020E08091E8008E778093E800CECF2D
:104500002111CFCF0AC080916E06882361F08530DB
:1045100061F08091E80083FD0AC08091E80082FF8D
:10452000F2CF80E0089582E0089583E0089581E06D
:10453000089581E08093E00080E28093D80010929B
:10454000C9008FE19EE40197F1F700C0000087E009
:1045500090EBDC0180937E0690937F06A09380060B
:10456000B09381069CE088E10FB6F894A8958093FB
:1045700060000FBE90936000FFCF78941F920F925F
:104580000FB60F9211248F939F93AF93BF93809197
:10459000670390916803A0916903B0916A03019643
:1045A000A11DB11D8093670390936803A0936903D5
:1045B000B0936A03BF91AF919F918F910F900FBEFF
:1045C0000F901F901895CF92DF92EF92FF922FB726
:1045D000F894C0906703D0906803E0906903F0906E
:1045E0006A032FBFA7019601261B370B480B590BF7
:1045F000CA01B901FF90EF90DF90CF9008959C0120
:104600004FB7F8948091670390916803A091690374
:10461000B0916A034FBF821B930B08952FB7F89494
:1046200060916703709168038091690390916A03B8
:104630002FBF08952FB7F894809167039091680376
:10464000A0916903B0916A032FBF08951F920F9242
:104650000FB60F9211248F939F93AF93BF938091C6
:104660006603811113C08091670390916803A09144
:104670006903B0916A034196A11DB11D8093670340
:1046800090936803A0936903B0936A03BF91AF91BD
:104690009F918F910F900FBE0F901F9018952091B2
:1046A0006403309165032817390771F0909365030F
:1046B00080936403E0916203F0916303309721F0EB
:1046C0000084F185E02D09940895209160033091D4
:1046D00061032817390771F0909361038093600399
:1046E000E0916203F0916303309721F00680F78137
:1046F000E02D099408950E94A31C811103C08091AC
:104700005F030895E0916203F0916303309721F015
:104710000190F081E02D099480E00895CF93DF931C
:10472000C3EED2E060E0CE010E9415302196C115A3
:1047300084E0D807B9F7DF91CF910895CF92DF9247
:10474000EF92FF920F931F93CF93DF93C0E0D0E0DF
:104750008E0104571F4F6E018EE0C80ED11CFE0162
:10476000EE50FE4FE590F4906F2DCE0187960E949B
:1047700015306E2DCE0188960E9415302296CC15EC
:10478000DD0569F70C171D0731F7E8010C3B1240F6
:10479000F9F6DF91CF911F910F91FF90EF90DF908D
:1047A000CF9008950F931F93CF93DF93C42FD0E042
:1047B000CC0FDD1F2EE0629FC00DD11D11243CE8FF
:1047C000839FC00DD11D1124CE0187960E94013018
:1047D000082F10E0102F0027CE0188960E9401308C
:1047E0009801282BC901DF91CF911F910F91089556
:1047F000462F853038F47A3028F4673018F4672F64
:104800000C94D22380E090E0089580915E03909113
:104810005D03882389F0992369F062E070E080EFFE
:1048200091E00E94F327892B19F080915D03089590
:1048300010925D0390915D0381E089270895809136
:104840005E038823F9F00E940E23DC01CB01805D1A
:104850009A48AF4FBF4F8093590390935A03A09348
:104860005B03B0935C0380915D0381110BC062E038
:1048700070E08EEE91E00E94F327892B19F481E01D
:1048800080935D0380915D030895FF920F931F93C2
:10489000CF93DF93EC01F62EFC0101900020E9F7A5
:1048A0008F0101501109C017D10728F46F2D89918C
:1048B0000E948424F8CFDF91CF911F910F91FF9038
:1048C0000895089580917D06882319F08150809382
:1048D0007D066091790670917A0680917B069091B1
:1048E0007C060C940B2C80917D06833018F48F5F2E
:1048F00080937D066091790670917A0680917B069F
:1049000090917C060C940B2C1F93CF93DF93162F62
:10491000C0915F06D09160068A30B9F420915604A8
:10492000CE0189559440622F70E00E94E42F281B2D
:10493000822F66E00E944930C82FC15008F4A2C0FF
:1049400060E080E20E948424F8CF8D30E9F4C955FC
:10495000D44020915604622F70E0CE010E94E42FD3
:10496000281B822F9E01280F311D2115324018F07F
:1049700080E0C0E0D0E0C80FD11DC75ADB4FD09314
:104980006006C0935F067EC096E0FE01A9E5B6E032
:1049900001900D929A95E1F7803E30F086E0FE019D
:1049A00011928A95E9F70BC0F6E08F9FB0011124B0
:1049B0006E507D4F46E050E0CE010E94F82F11115D
:1049C00037C0C0915F06D091600646E050E0BE015E
:1049D00089E596E00E948330892BC9F19E01295513
:1049E0003440A90185E0569547958A95E1F781E025
:1049F00090E0BC0102C0660F771F4A95E2F7409134
:104A0000570450915804462B572B2B5F3F4F65E0BE
:104A1000369527956A95E1F702C0880F991F2A9568
:104A2000E2F7842B952B90935804809357040FC082
:104A3000E0915F06F09160069F012A5F3F4F2E17BD
:104A40003F0709F4BECF808180958193F8CF9E0106
:104A50002355344040915604642F70E0C9010E94F0
:104A6000E42F481B463010F4240F311D211582E03D
:104A7000380710F020E030E0275A3B4F30936006B3
:104A800020935F06DF91CF911F91089520915604E6
:104A900036E0839FC0011124629F800D911D112477
:104AA000811522E0920714F080E090E0875A9B4F36
:104AB0009093600680935F060895FC01680F791F4C
:104AC0008FEF91E3E617F70771F02191822728E035
:104AD00030E087FF03C0880F892701C0880F21506D
:104AE0003109B9F7EFCF0895CF93C82F811102C0D4
:104AF0006FEF01C061E283E290E00E941530C111C6
:104B000002C06FEF01C062E184E290E00E941530C4
:104B1000C11102C06FEF01C065E285E290E0CF9164
:104B20000C94153080E00E94742560E086E290E0ED
:104B30000E9415300E949E230E948E2381E00C94D7
:104B4000742583E290E00E940130813281F484E296
:104B500090E00E940130823151F485E290E00E94A1
:104B6000013091E0853209F090E0892F01C080E0AA
:104B700081700895882311F0FA0101C0FB010994A6
:104B8000E3E5F4E01182828184608283089560917C
:104B90007906669570E041E050E08AE991E00E9474
:104BA0007630892B19F481E0809354040E94821D91
:104BB00090934E0480934D048091550484608093BB
:104BC00055040895309196018091790680FF16C0B2
:104BD000E091950163E0E69FF0011124E159FC4F5B
:104BE000539A8BB1877F9BB198602FB7F894AF0130
:104BF00063E0369F400D511D112414C08091970130
:104C000090919801891720F7E82FF0E0AF01440F49
:104C1000551FE40FF51FE159FC4F118210821282DB
:104C20008F5FF0CFE417F50789F0319168E09BB909
:104C3000000000C037FF8BB9330F000000C000C078
:104C400000C08BB900C06A9591F7ECCF2FBF8FE5FC
:104C500094E00197F1F700C0000008959091790663
:104C600090FF16C09091970120919801921770F4CF
:104C7000E92FF0E0DF01AA0FBB1FEA0FFB1FE1598C
:104C8000FC4F8183608342839F5FF0CF0C94E225C9
:104C900008950F931F93CF93DF9300D01F92CDB74A
:104CA000DEB78C01DC011496EC91F0E0EE50FE4F83
:104CB00044918091790680FF11C0413A08F040EAA2
:104CC0009E012F5F3F4F60917B0680917A060E9484
:104CD0001D2C4B8169818A810E942E26F8018481D6
:104CE0008F5F84830F900F900F90DF91CF911F9172
:104CF0000F910895EF92FF920F931F93CF93DF933D
:104D000000D01F92CDB7DEB7F82E062F142FE22E5B
:104D10008091790680FF42C0E82FE695F0E0E05DE3
:104D2000FD4F9081909353048E7F823081F4413AFD
:104D300008F040EA9E012F5F3F4F602F8F2D0E94A9
:104D40001D2C4B8169818A810E942E2604C09230DD
:104D500011F410917C0680917A06F81208C08091B7
:104D60007B06081304C080917C06181729F08091F7
:104D70005504826080935504F0927A0600937B0676
:104D800010937C06EE2051F06091790670917A06BE
:104D900080917B0690917C060E940B2C0F900F90C7
:104DA0000F90DF91CF911F910F91FF90EF90089599
:104DB000E9E7F6E0438121E1421B08F440E021E00D
:104DC000628181810C947A26E9E7F6E0438121E152
:104DD000420F08F44FEF21E0628181810C947A2622
:104DE000E9E7F6E0628121E1621B08F460E021E07E
:104DF000438181810C947A26E9E7F6E0628121E122
:104E0000620F08F46FEF21E0438181810C947A26D0
:104E1000E9E7F6E0818121E04381628188500C94CA
:104E20007A26E9E7F6E0818121E043816281885FAB
:104E30000C947A26E9E7F6E080818E7F80830E94D9
:104E4000C025E3E5F4E08281816082832FEF80E773
:104E500092E0215080409040E1F700C000000C94A7
:104E6000E2259091790690FF3BC09170811102C0BC
:104E7000926006C0863010F09A6002C0880F982BAE
:104E80009093790680915504816080935504662340
:104E900051F06091790670917A0680917B0690912D
:104EA0007C060E940B2C60917906669570E041E0CB
:104EB00050E08AE991E00E947630892B19F00E9437
:104EC000C02502C00E94C72581E08093500420E0E5
:104ED00040917C0660917B0680917A060C947A263C
:104EE000089560E00C943127809179068695815071
:104EF00009F485E061E00C9431278091790686956C
:104F00008F5F863008F081E061E00C94312788E003
:104F100090E00E9409306093790670937A0680933E
:104F20007B0690937C0680915504836080935504A2
:104F30000E94F12B8091790680FF03C086950C9426
:104F400071270895E9E7F6E083E0808311828FEF0F
:104F5000828380EA83831482A3E5B4E012968C9165
:104F60001297836012968C93608171818281938104
:104F70000C940B2C8091790680FF07C0869582588F
:104F80008F77833010F40C947D2761E082E00C94DD
:104F9000312780917806982F9670963011F48860AA
:104FA00001C0877F0C9459191F93CF93DF93EC01B5
:104FB00088818330A1F48981803D89F46B818A8165
:104FC0000E94462510E08C81181748F4FE01E10F7D
:104FD000F11D60E085810E9484241F5FF4CFDF9182
:104FE000CF911F910895EF92FF920F931F93CF934C
:104FF000DF93EC017B0164E670E088E70E94B92C46
:105000008C01EC0EFD1ECE15DF0561F017FD0AC008
:10501000FE01849164E670E00E943A2D8C01219695
:10502000892B89F30E94BE2DC801DF91CF911F917A
:105030000F91FF90EF900895EF92FF920F931F93BF
:10504000CF93DF937C018B010E947C20811119C0DA
:10505000E70101151105A1F08091E80085FD0AC066
:105060008091E8008E778093E8000E947C2088235E
:1050700081F307C089918093F10001501109E9CFB4
:1050800080E0DF91CF911F910F91FF90EF900895F5
:105090001F93CF93DF93CDB7DEB7AA970FB6F894DF
:1050A000DEBF0FBECDBFE0E7F6E088E796E02091D7
:1050B000F10021938E179F07D1F7809171068330FD
:1050C00009F463C030F4813071F0823009F49FC07C
:1050D000B6C08A3009F48BC08B3009F46EC08930B9
:1050E00009F0ADC020C080917006813A09F0A7C0D8
:1050F0008091E800877F8093E8008091740690910A
:105100007506892B21F468E084E696E003C060E030
:1051100080E090E070E00E943B228091E8008B7775
:105120008093E8008CC080917006813209F087C0BE
:105130008091740690917506009719F0029709F016
:105140007EC08091E800877F8093E8008091E8002E
:1051500082FD05C080916E068111F8CF70C020914C
:10516000F3008091F20090E0922B029731F480914D
:10517000F100813011F0863021F48091F1008093AC
:1051800063068091E8008B7756C080917006813A63
:1051900009F055C08091740690917506892B09F02D
:1051A0004EC08091E800877F8093E8008091E800FE
:1051B00080FFFCCF80919B0139C0809170068132C5
:1051C000F1F58091740690917506892BC1F5809157
:1051D000E800877F8093E8000E94AF2080917206EC
:1051E00080939B01109261060E94B41928C080919F
:1051F0007006813221F58091E800877F8093E80076
:105200000E94AF20809173068093620618C080913F
:105210007006813AA1F48091E800877F8093E800CE
:105220008091E80080FFFCCF809162068093F100BE
:105230008091E8008E778093E8000E94AF208091F3
:10524000E80083FFDFC18091700690917106492FBD
:1052500050E04A30510508F0D5C1FA01ED57FF4F33
:105260000C946930803821F0823809F0CBC108C035
:1052700080916C0690916D06992389F082600FC031
:10528000809174068F70873008F0BCC18093E9006C
:105290008091EB0085FB882780F91092E9009091BE
:1052A000E800977F9093E8008093F1001092F1005E
:1052B00070C1282F2D7F09F0A5C1882319F08230F5
:1052C00061F0A0C180917206813009F09BC19330DA
:1052D00009F080E080936D062EC0809172068111E6
:1052E0002AC0809174068F702FEF280F263008F0A7
:1052F00089C18093E9002091EB0020FF1CC093300E
:1053000021F48091EB00806214C09091EB009061D9
:105310009093EB0021E030E0A90102C0440F551F3B
:105320008A95E2F74093EA001092EA008091EB0040
:1053300088608093EB001092E9008091E800877FFD
:105340008093E8000E94AF205DC181115BC1109184
:1053500072061F778091E3008078812B8093E300B1
:105360008091E800877F8093E8000E94AF208091C1
:10537000E80080FFFCCF8091E30080688093E30029
:10538000111102C082E001C083E080936E063AC131
:105390008058823008F036C1209172063091730631
:1053A0002C3D53E0350779F583E08A838AE28983CF
:1053B0004FB7F894DE01139620E03EE051E2E32F70
:1053C000F0E050935700E49120FF03C0E295EF70A6
:1053D0003F5FEF708E2F90E0EA3010F0C79601C06B
:1053E000C0968D939D932F5F243149F74FBF8091D5
:1053F000E800877F8093E8006AE270E0CE010196C2
:105400000E943B22B4C08091740690917506432F90
:10541000552743305105A9F068F44130510509F48E
:1054200000C14230510509F0EDC08BE590E0E6EC9B
:10543000F8E04BC04132510529F14232510589F162
:10544000E1C0C901992781309105A1F058F0029778
:1054500009F0D8C0E3E3F9E0E4918E2F90E0E3E3B4
:10546000F9E030C0E5E5F9E0E4918E2F90E0E5E564
:10547000F9E028C0E9E4F9E0E4918E2F90E0E9E456
:10548000F9E020C08330910508F0BCC0880F991F57
:10549000FC01E15CFD4F0190F081E02D89E090E09E
:1054A00014C08330910508F0ADC0FC01EE0FFF1F62
:1054B000E75CFD4F0190F081E02DDC01AA5CBD4F5F
:1054C0008C9190E0009709F49DC02091E800277F1F
:1054D0002093E80020917606309177062817390747
:1054E00008F4C90140E0009789F120916E0622235B
:1054F00009F43DC02530D9F12091E80023FD37C0E3
:105500002091E80022FD2FC02091E80020FFEBCF82
:105510004091F3002091F20030E0342B009759F0D5
:105520002830310540F444914093F10031960197C1
:105530002F5F3F4FF3CF41E02830310509F040E0C5
:105540002091E8002E772093E800CDCF4111CDCFF8
:105550000AC080916E06882351F0853041F0809119
:10556000E80083FD04C08091E80082FFF2CF8091C3
:10557000E8008B778093E80045C0803809F042C08E
:105580008091E800877F8093E80080916F06809388
:10559000F1008091E8008E77D3CE811133C08091E5
:1055A0007206909173069927029764F58091E8003E
:1055B000877F8093E8001091720610936F060E9417
:1055C000AF20111106C08091E30087FD02C081E089
:1055D00001C084E080936E0642E061EC81E00E94AD
:1055E000CE2042E261EC84E00E94CE2042E261ECF7
:1055F00082E00E94CE2042E260EC83E00E94CE2056
:1056000080916E068091E80083FF10C08091E800D1
:10561000877F8093E8008091EB0080628093EB00AD
:1056200005C082E190E0E1E2F9E04FCFAA960FB623
:10563000F894DEBF0FBECDBFDF91CF911F910895CB
:10564000882321F00E940C160C940E1908958823CB
:1056500039F090916106892B809361060C940E19A4
:105660000895882371F19CEF980F913A60F4E3EA72
:10567000F2E09281891301C01282319692E0E93AF8
:10568000F907B9F70DC090E2980F983058F4982FA9
:10569000977081E001C0880F9A95EAF70E940C1676
:1056A0000C940E199BE5980F933020F480E090E065
:1056B0000C946523885A873120F480E090E00C94A4
:1056C0004F2308950F931F93CF93882309F46EC03F
:1056D0009CEF980F913A58F5C82F05EA12E08BEA33
:1056E00092E0F8012191C21721F08E179F07D1F7A0
:1056F0000EC0E3EAF2E089EA92E02281C21301C01F
:10570000128231968E179F07C1F70E940E19EFEF94
:1057100080E0D8019D918D01C917E1F0EF3F19F4A8
:10572000911101C0E82F8F5F863099F736C090E263
:10573000980F9830A0F4877021E030E0A90102C0F2
:10574000440F551F8A95E2F7CA0190916106892B93
:1057500080936106CF911F910F910C940E19EBE588
:10576000E80FE33050F4F0E0E350FE4F808190E02A
:10577000CF911F910F910C946523885A8731B0F413
:10578000E82FF0E0EE0FFF1FE050FE4F8081918187
:10579000CF911F910F910C944F23EF3FD9F20E2E12
:1057A000000CFF0BED55FD4FC283D4CFCF911F915D
:1057B0000F9108951F93CF93DF93182FEB010E9451
:1057C000622B209741F08FE99FE00197F1F700C02D
:1057D00000002197F6CF812FDF91CF911F910C947C
:1057E000312B80917906282F269530E0211531053F
:1057F00019F48170826005C02630310524F0817073
:105800008A608093790680917C06813A18F080EA5C
:1058100080937C060895CF92DF92EF92FF926B0106
:105820007C010E94F12BB701A60188E090E0FF9077
:10583000EF90DF90CF900C942730AF92BF92CF9231
:10584000DF92EF92FF920F931F93CF93DF93E82E97
:10585000F62EE901E42FF0E0611106C0E75AF64F99
:10586000E4914E2F2E2F71C0062F10E0E75AF64F0D
:105870004491F42FC42ED12C26E0829FC001112424
:105880002FEF30E0B9010E94E42F5BEA5603C0011C
:10589000579F900D11248E0D911D8E0D911D582F27
:1058A000550F580FD901A01BB10BAC9DC001AD9D88
:1058B000900DBC9D900D1124E92FF59ED00111246F
:1058C000AB2FBB277901EA1AFB0AEC9CD001ED9CB7
:1058D000B00DFC9CB00D11245901A51AB108A09E71
:1058E0007001A19EF00CB09EF00C1124EF2CFF244F
:1058F0002E193F092C9D80012D9D100D3C9D100DF2
:105900001124212F6230710591F048F46115710561
:10591000E1F061307105B9F4242F4B2F16C06430CB
:10592000710569F040F06630710579F00CC0242FE4
:10593000492FE12F0AC0492FEF2F2B2F06C0292F07
:10594000E42F412F02C0292FEB2F49832883EA83BC
:10595000DF91CF911F910F91FF90EF90DF90CF904B
:10596000BF90AF9008951092B9008CE08093B8007A
:1059700008959F92AF92BF92CF92DF92EF92FF92E3
:105980000F931F93CF93DF93B82EEB010E941A233E
:105990006C01C431D10558F0CF3F8FEFD80759F0D3
:1059A000CE0164E170E00E94E42F7B0107C0EE2489
:1059B000E394F12C03C025E0E22EF12C84E8A82E1C
:1059C00094EA992E1092BC009092BC000E941A2377
:1059D0008C018091BC0087FD08C00E941A23801BA7
:1059E000910B8E159F05A8F32AC08091B900887F7E
:1059F000883041F08091B900887F803119F00FEF35
:105A00001FEF1FC0B092BB00A092BC000E941A23DF
:105A10008C018091BC0087FD08C00E941A23801B66
:105A2000910B8E159F05A8F30AC08091B900887F5D
:105A3000883111F0803419F700E010E00EC00EEF4D
:105A40001FEFCF3F8FEFD80709F4BCCFC6010E94EC
:105A5000FF228C179D0708F4B5CFC801DF91CF91C5
:105A60001F910F91FF90EF90DF90CF90BF90AF907C
:105A70009F9008950F931F93CF93DF93EB01809333
:105A8000BB0084E88093BC000E941A238C018091A3
:105A9000BC0087FD0EC0CF3F8FEFD807C1F30E9437
:105AA0001A23801B910B8C179D0788F38EEF9FEFB5
:105AB0000CC02091B900287F81E090E0283211F4D9
:105AC00080E090E0919581959109DF91CF911F91B0
:105AD0000F910895CF92DF92EF92FF920F931F9351
